{
  "transactions": [
    {
      "hash": "0xf0d9a63a057916edb3fa9238b852a538cb49afdffe5b51b716bcc1514b075bf6",
      "transactionType": "CALL",
      "contractName": null,
      "contractAddress": "0x5fbdb2315678afecb367f032d93f642f64180aa3",
      "function": "registerCandidate(uint256,address)",
      "arguments": [
        "1",
        "0xDe236d94c1b08B404936e1484062C70062D4c6E6"
      ],
      "transaction": {
        "from": "0xf39fd6e51aad88f6f4ce6ab8827279cfffb92266",
        "to": "0x5fbdb2315678afecb367f032d93f642f64180aa3",
        "gas": "0x19442",
        "value": "0x0",
        "input": "0x4830a1360000000000000000000000000000000000000000000000000000000000000001000000000000000000000000de236d94c1b08b404936e1484062c70062d4c6e6",
        "nonce": "0x1",
        "chainId": "0x7a69"
      },
      "additionalContracts": [],
      "isFixedGasLimit": false
    },
    {
      "hash": "0x4ad663312c1fafea8dbce839ad8c350c2655dec1c5b77089961781939037a133",
      "transactionType": "CALL",
      "contractName": null,
      "contractAddress": "0x5fbdb2315678afecb367f032d93f642f64180aa3",
      "function": "registerCandidate(uint256,address)",
      "arguments": [
        "2",
        "0x6C53F013c890FC3CE373F7aB67c7A838f77888a3"
      ],
      "transaction": {
        "from": "0xf39fd6e51aad88f6f4ce6ab8827279cfffb92266",
        "to": "0x5fbdb2315678afecb367f032d93f642f64180aa3",
        "gas": "0x132a3",
        "value": "0x0",
        "input": "0x4830a13600000000000000000000000000000000000000000000000000000000000000020000000000000000000000006c53f013c890fc3ce373f7ab67c7a838f77888a3",
        "nonce": "0x2",
        "chainId": "0x7a69"
      },
      "additionalContracts": [],
      "isFixedGasLimit": false
    },
    {
      "hash": "0x636f4bea5b5fb10f829157cd974530c67157b732106c26966a5c9d0946f04e63",
      "transactionType": "CALL",
      "contractName": null,
      "contractAddress": "0x5fbdb2315678afecb367f032d93f642f64180aa3",
      "function": "registerCandidate(uint256,address)",
      "arguments": [
        "3",
        "0xe2a98d9FbFfcFa9f53b63a0B9f084EDa67329cF1"
      ],
      "transaction": {
        "from": "0xf39fd6e51aad88f6f4ce6ab8827279cfffb92266",
        "to": "0x5fbdb2315678afecb367f032d93f642f64180aa3",
        "gas": "0x132a3",
        "value": "0x0",
        "input": "0x4830a1360000000000000000000000000000000000000000000000000000000000000003000000000000000000000000e2a98d9fbffcfa9f53b63a0b9f084eda67329cf1",
        "nonce": "0x3",
        "chainId": "0x7a69"
      },
      "additionalContracts": [],
      "isFixedGasLimit": false
    },
    {
      "hash": "0x8804da6d4efc106c595aec4ad3974cffa782132e869f6f282a255175d4d6814e",
      "transactionType": "CALL",
      "contractName": null,
      "contractAddress": "0x5fbdb2315678afecb367f032d93f642f64180aa3",
      "function": "registerVoters(address[])",
      "arguments": [
        "[0xF1267d897eFf268de49260Ef612828ece4C07f48, 0x3823736d01881865DED2224B8f8eB3FCBAd33807, 0x41C99dF46fd0963562a4eB90103ED835C75753ce, 0x8EBD9BA086ccD2EEDF970A54cE8452966E44fd49, 0x7A064E4b5e417b9CD4a4DFA4BA399580439eb146]"
      ],
      "transaction": {
        "from": "0xf39fd6e51aad88f6f4ce6ab8827279cfffb92266",
        "to": "0x5fbdb2315678afecb367f032d93f642f64180aa3",
        "gas": "0x66f85",
        "value": "0x0",
        "input": "0xd55ec9c100000000000000000000000000000000000000000000000000000000000000200000000000000000000000000000000000000000000000000000000000000005000000000000000000000000f1267d897eff268de49260ef612828ece4c07f480000000000000000000000003823736d01881865ded2224b8f8eb3fcbad3380700000000000000000000000041c99df46fd0963562a4eb90103ed835c75753ce0000000000000000000000008ebd9ba086ccd2eedf970a54ce8452966e44fd490000000000000000000000007a064e4b5e417b9cd4a4dfa4ba399580439eb146",
        "nonce": "0x4",
        "chainId": "0x7a69"
      },
      "additionalContracts": [],
      "isFixedGasLimit": false
    }
  ],
  "receipts": [
    {
      "status": "0x1",
      "cumulativeGasUsed": "0x1146b",
      "logs": [
        {
          "address": "0x5fbdb2315678afecb367f032d93f642f64180aa3",
          "topics": [
            "0xf1ea2573ddf2ce6e931102024c2b67e7d23a5e33614f19c27f5a5aaf1d59c088",
            "0x0000000000000000000000000000000000000000000000000000000000000001",
            "0x000000000000000000000000de236d94c1b08b404936e1484062c70062d4c6e6"
          ],
          "data": "0x",
          "blockHash": "0x14b8230aa6b61b3669865ffc32daed2da824c68353227b1457e94bf403216b4e",
          "blockNumber": "0x2",
          "blockTimestamp": "0x68b48591",
          "transactionHash": "0xf0d9a63a057916edb3fa9238b852a538cb49afdffe5b51b716bcc1514b075bf6",
          "transactionIndex": "0x0",
          "logIndex": "0x0",
          "removed": false
        }
      ],
      "logsBloom": "0x00000020000000000000000000000000000000000000000000000000000000000000000000000000000000000000000000000000000000000000000000040000040000000000000000000000000000000000000000040000000002000000000000000040000000000000000000000000000000000000000000000000000000000000000000000000000000000000000000000000020000000000000200000000000000000000000000000000400080000000000000000000000000000000000000000040000000000000000000000000000000000000000000000000000040000000000000000000000000000000000000000000000000000000000000000000",
      "type": "0x2",
      "transactionHash": "0xf0d9a63a057916edb3fa9238b852a538cb49afdffe5b51b716bcc1514b075bf6",
      "transactionIndex": "0x0",
      "blockHash": "0x14b8230aa6b61b3669865ffc32daed2da824c68353227b1457e94bf403216b4e",
      "blockNumber": "0x2",
      "gasUsed": "0x1146b",
      "effectiveGasPrice": "0x34ffc29f",
      "blobGasPrice": "0x1",
      "from": "0xf39fd6e51aad88f6f4ce6ab8827279cfffb92266",
      "to": "0x5fbdb2315678afecb367f032d93f642f64180aa3",
      "contractAddress": null
    },
    {
      "status": "0x1",
      "cumulativeGasUsed": "0xd1ab",
      "logs": [
        {
          "address": "0x5fbdb2315678afecb367f032d93f642f64180aa3",
          "topics": [
            "0xf1ea2573ddf2ce6e931102024c2b67e7d23a5e33614f19c27f5a5aaf1d59c088",
            "0x0000000000000000000000000000000000000000000000000000000000000002",
            "0x0000000000000000000000006c53f013c890fc3ce373f7ab67c7a838f77888a3"
          ],
          "data": "0x",
          "blockHash": "0xd15f78e5311d737072bae294add8d44cc34bee63e7e83280ccb24069a2ecf58b",
          "blockNumber": "0x3",
          "blockTimestamp": "0x68b48591",
          "transactionHash": "0x4ad663312c1fafea8dbce839ad8c350c2655dec1c5b77089961781939037a133",
          "transactionIndex": "0x0",
          "logIndex": "0x0",
          "removed": false
        }
      ],
      "logsBloom": "0x04000000000000000000000000000000000000000000000000000000000000000000800000000000000000000000000000000000000000000000000000000000040000000000000000000000000000000000000000000000000000000000000000000040000000000000000000000000000000000000000000000000000000200000000000000000000000000000000000000000020000000000000200000000000000000000000000000100400000000000000080000000000000000000000000000040000000000000000000000000000000000000000000000000000000000000000000000000000000000000000000000000008000000000000000000000",
      "type": "0x2",
      "transactionHash": "0x4ad663312c1fafea8dbce839ad8c350c2655dec1c5b77089961781939037a133",
      "transactionIndex": "0x0",
      "blockHash": "0xd15f78e5311d737072bae294add8d44cc34bee63e7e83280ccb24069a2ecf58b",
      "blockNumber": "0x3",
      "gasUsed": "0xd1ab",
      "effectiveGasPrice": "0x2e67ca80",
      "blobGasPrice": "0x1",
      "from": "0xf39fd6e51aad88f6f4ce6ab8827279cfffb92266",
      "to": "0x5fbdb2315678afecb367f032d93f642f64180aa3",
      "contractAddress": null
    },
    {
      "status": "0x1",
      "cumulativeGasUsed": "0x1a356",
      "logs": [
        {
          "address": "0x5fbdb2315678afecb367f032d93f642f64180aa3",
          "topics": [
            "0xf1ea2573ddf2ce6e931102024c2b67e7d23a5e33614f19c27f5a5aaf1d59c088",
            "0x0000000000000000000000000000000000000000000000000000000000000003",
            "0x000000000000000000000000e2a98d9fbffcfa9f53b63a0b9f084eda67329cf1"
          ],
          "data": "0x",
          "blockHash": "0xd15f78e5311d737072bae294add8d44cc34bee63e7e83280ccb24069a2ecf58b",
          "blockNumber": "0x3",
          "blockTimestamp": "0x68b48591",
          "transactionHash": "0x636f4bea5b5fb10f829157cd974530c67157b732106c26966a5c9d0946f04e63",
          "transactionIndex": "0x1",
          "logIndex": "0x1",
          "removed": false
        }
      ],
      "logsBloom": "0x00000000000000000000000000000000000000000000000000000000000000000000000000000000000000000000000000000000020000000000000000000000040000000000000000000000000000000000000000000000000000000000000000000040000000000000000000000000000000000000000000000000000000000000000000000000000000000000000000000000020008000000000200000000000000000000000000000000400000800000000000800000000000000000400000000040000000000000000000000000000000000000000000000000000000000000004000000000000000000000000000000000000000000000000000000000",
      "type": "0x2",
      "transactionHash": "0x636f4bea5b5fb10f829157cd974530c67157b732106c26966a5c9d0946f04e63",
      "transactionIndex": "0x1",
      "blockHash": "0xd15f78e5311d737072bae294add8d44cc34bee63e7e83280ccb24069a2ecf58b",
      "blockNumber": "0x3",
      "gasUsed": "0xd1ab",
      "effectiveGasPrice": "0x2e67ca80",
      "blobGasPrice": "0x1",
      "from": "0xf39fd6e51aad88f6f4ce6ab8827279cfffb92266",
      "to": "0x5fbdb2315678afecb367f032d93f642f64180aa3",
      "contractAddress": null
    },
    {
      "status": "0x1",
      "cumulativeGasUsed": "0x64c1d",
      "logs": [
        {
          "address": "0x5fbdb2315678afecb367f032d93f642f64180aa3",
          "topics": [
            "0xb6be2187d059cc2a55fe29e0e503b566e1e0f8c8780096e185429350acffd3dd",
            "0x000000000000000000000000f1267d897eff268de49260ef612828ece4c07f48"
          ],
          "data": "0x",
          "blockHash": "0xd15f78e5311d737072bae294add8d44cc34bee63e7e83280ccb24069a2ecf58b",
          "blockNumber": "0x3",
          "blockTimestamp": "0x68b48591",
          "transactionHash": "0x8804da6d4efc106c595aec4ad3974cffa782132e869f6f282a255175d4d6814e",
          "transactionIndex": "0x2",
          "logIndex": "0x2",
          "removed": false
        },
        {
          "address": "0x5fbdb2315678afecb367f032d93f642f64180aa3",
          "topics": [
            "0xb6be2187d059cc2a55fe29e0e503b566e1e0f8c8780096e185429350acffd3dd",
            "0x0000000000000000000000003823736d01881865ded2224b8f8eb3fcbad33807"
          ],
          "data": "0x",
          "blockHash": "0xd15f78e5311d737072bae294add8d44cc34bee63e7e83280ccb24069a2ecf58b",
          "blockNumber": "0x3",
          "blockTimestamp": "0x68b48591",
          "transactionHash": "0x8804da6d4efc106c595aec4ad3974cffa782132e869f6f282a255175d4d6814e",
          "transactionIndex": "0x2",
          "logIndex": "0x3",
          "removed": false
        },
        {
          "address": "0x5fbdb2315678afecb367f032d93f642f64180aa3",
          "topics": [
            "0xb6be2187d059cc2a55fe29e0e503b566e1e0f8c8780096e185429350acffd3dd",
            "0x00000000000000000000000041c99df46fd0963562a4eb90103ed835c75753ce"
          ],
          "data": "0x",
          "blockHash": "0xd15f78e5311d737072bae294add8d44cc34bee63e7e83280ccb24069a2ecf58b",
          "blockNumber": "0x3",
          "blockTimestamp": "0x68b48591",
          "transactionHash": "0x8804da6d4efc106c595aec4ad3974cffa782132e869f6f282a255175d4d6814e",
          "transactionIndex": "0x2",
          "logIndex": "0x4",
          "removed": false
        },
        {
          "address": "0x5fbdb2315678afecb367f032d93f642f64180aa3",
          "topics": [
            "0xb6be2187d059cc2a55fe29e0e503b566e1e0f8c8780096e185429350acffd3dd",
            "0x0000000000000000000000008ebd9ba086ccd2eedf970a54ce8452966e44fd49"
          ],
          "data": "0x",
          "blockHash": "0xd15f78e5311d737072bae294add8d44cc34bee63e7e83280ccb24069a2ecf58b",
          "blockNumber": "0x3",
          "blockTimestamp": "0x68b48591",
          "transactionHash": "0x8804da6d4efc106c595aec4ad3974cffa782132e869f6f282a255175d4d6814e",
          "transactionIndex": "0x2",
          "logIndex": "0x5",
          "removed": false
        },
        {
          "address": "0x5fbdb2315678afecb367f032d93f642f64180aa3",
          "topics": [
            "0xb6be2187d059cc2a55fe29e0e503b566e1e0f8c8780096e185429350acffd3dd",
            "0x0000000000000000000000007a064e4b5e417b9cd4a4dfa4ba399580439eb146"
          ],
          "data": "0x",
          "blockHash": "0xd15f78e5311d737072bae294add8d44cc34bee63e7e83280ccb24069a2ecf58b",
          "blockNumber": "0x3",
          "blockTimestamp": "0x68b48591",
          "transactionHash": "0x8804da6d4efc106c595aec4ad3974cffa782132e869f6f282a255175d4d6814e",
          "transactionIndex": "0x2",
          "logIndex": "0x6",
          "removed": false
        }
      ],
      "logsBloom": "0x00000000000120000000000010000000000000000000000000000000000000000000000000008000000000000000000000000000000000000000000000002000000000400000000000000000000000000000000000000000000000000000080000000040000000000000000000000120000000000000000000000000000000000001000000000000000000000000000000000000000000000000000200000000000000000000000000000000000000000000000000000000000000000000000000000040000000000000000000000000000000000000008010008000000000000000000000000000000000002000000000000400080000004000000010000000",
      "type": "0x2",
      "transactionHash": "0x8804da6d4efc106c595aec4ad3974cffa782132e869f6f282a255175d4d6814e",
      "transactionIndex": "0x2",
      "blockHash": "0xd15f78e5311d737072bae294add8d44cc34bee63e7e83280ccb24069a2ecf58b",
      "blockNumber": "0x3",
      "gasUsed": "0x4a8c7",
      "effectiveGasPrice": "0x2e67ca80",
      "blobGasPrice": "0x1",
      "from": "0xf39fd6e51aad88f6f4ce6ab8827279cfffb92266",
      "to": "0x5fbdb2315678afecb367f032d93f642f64180aa3",
      "contractAddress": null
    }
  ],
  "libraries": [],
  "pending": [],
  "returns": {},
  "timestamp": 1756661137776,
  "chain": 31337,
  "commit": null
}