{
  "transactions": [
    {
      "hash": "0x39e518d37ecc07f682acc26549c9d8326e593eb1495c636a07842e415ff27222",
      "transactionType": "CALL",
      "contractName": null,
      "contractAddress": "0x5fbdb2315678afecb367f032d93f642f64180aa3",
      "function": "registerCandidate(uint256,address)",
      "arguments": [
        "1",
        "0x70997970C51812dc3A010C7d01b50e0d17dc79C8"
      ],
      "transaction": {
        "from": "0xf39fd6e51aad88f6f4ce6ab8827279cfffb92266",
        "to": "0x5fbdb2315678afecb367f032d93f642f64180aa3",
        "gas": "0x17ddd",
        "value": "0x0",
        "input": "0x4830a136000000000000000000000000000000000000000000000000000000000000000100000000000000000000000070997970c51812dc3a010c7d01b50e0d17dc79c8",
        "nonce": "0x1",
        "chainId": "0x7a69"
      },
      "additionalContracts": [],
      "isFixedGasLimit": false
    },
    {
      "hash": "0x0d63c04eca0b764a0d626147448c3ff1bd320adfffca773a9d5db4abcfc2028a",
      "transactionType": "CALL",
      "contractName": null,
      "contractAddress": "0x5fbdb2315678afecb367f032d93f642f64180aa3",
      "function": "registerCandidate(uint256,address)",
      "arguments": [
        "2",
        "0x3C44CdDdB6a900fa2b585dd299e03d12FA4293BC"
      ],
      "transaction": {
        "from": "0xf39fd6e51aad88f6f4ce6ab8827279cfffb92266",
        "to": "0x5fbdb2315678afecb367f032d93f642f64180aa3",
        "gas": "0x12188",
        "value": "0x0",
        "input": "0x4830a13600000000000000000000000000000000000000000000000000000000000000020000000000000000000000003c44cdddb6a900fa2b585dd299e03d12fa4293bc",
        "nonce": "0x2",
        "chainId": "0x7a69"
      },
      "additionalContracts": [],
      "isFixedGasLimit": false
    },
    {
      "hash": "0xb5f43e0855b638b930dee5205361440fb0bc3ab68d70a46cb7d59b8a392aec6e",
      "transactionType": "CALL",
      "contractName": null,
      "contractAddress": "0x5fbdb2315678afecb367f032d93f642f64180aa3",
      "function": "registerCandidate(uint256,address)",
      "arguments": [
        "3",
        "0x90F79bf6EB2c4f870365E785982E1f101E93b906"
      ],
      "transaction": {
        "from": "0xf39fd6e51aad88f6f4ce6ab8827279cfffb92266",
        "to": "0x5fbdb2315678afecb367f032d93f642f64180aa3",
        "gas": "0x132a3",
        "value": "0x0",
        "input": "0x4830a136000000000000000000000000000000000000000000000000000000000000000300000000000000000000000090f79bf6eb2c4f870365e785982e1f101e93b906",
        "nonce": "0x3",
        "chainId": "0x7a69"
      },
      "additionalContracts": [],
      "isFixedGasLimit": false
    },
    {
      "hash": "0x38bf66eaa4d9147f20db921b6b2c7a032c34c4ab917cefd10e99e11217489d53",
      "transactionType": "CALL",
      "contractName": null,
      "contractAddress": "0x5fbdb2315678afecb367f032d93f642f64180aa3",
      "function": "registerVoters(address[])",
      "arguments": [
        "[0x15d34AAf54267DB7D7c367839AAf71A00a2C6A65, 0x9965507D1a55bcC2695C58ba16FB37d819B0A4dc, 0x976EA74026E726554dB657fA54763abd0C3a0aa9, 0x14dC79964da2C08b23698B3D3cc7Ca32193d9955, 0x23618e81E3f5cdF7f54C3d65f7FBc0aBf5B21E8f]"
      ],
      "transaction": {
        "from": "0xf39fd6e51aad88f6f4ce6ab8827279cfffb92266",
        "to": "0x5fbdb2315678afecb367f032d93f642f64180aa3",
        "gas": "0x66fa3",
        "value": "0x0",
        "input": "0xd55ec9c10000000000000000000000000000000000000000000000000000000000000020000000000000000000000000000000000000000000000000000000000000000500000000000000000000000015d34aaf54267db7d7c367839aaf71a00a2c6a650000000000000000000000009965507d1a55bcc2695c58ba16fb37d819b0a4dc000000000000000000000000976ea74026e726554db657fa54763abd0c3a0aa900000000000000000000000014dc79964da2c08b23698b3d3cc7ca32193d995500000000000000000000000023618e81e3f5cdf7f54c3d65f7fbc0abf5b21e8f",
        "nonce": "0x4",
        "chainId": "0x7a69"
      },
      "additionalContracts": [],
      "isFixedGasLimit": false
    }
  ],
  "receipts": [
    {
      "status": "0x1",
      "cumulativeGasUsed": "0x11477",
      "logs": [
        {
          "address": "0x5fbdb2315678afecb367f032d93f642f64180aa3",
          "topics": [
            "0xf1ea2573ddf2ce6e931102024c2b67e7d23a5e33614f19c27f5a5aaf1d59c088",
            "0x0000000000000000000000000000000000000000000000000000000000000001",
            "0x00000000000000000000000070997970c51812dc3a010c7d01b50e0d17dc79c8"
          ],
          "data": "0x",
          "blockHash": "0x3729948065cb1377bc56cbc21c96eb2cdb1ad3357b558e04b0ca59cc9f95e483",
          "blockNumber": "0x2",
          "blockTimestamp": "0x68b48c43",
          "transactionHash": "0x39e518d37ecc07f682acc26549c9d8326e593eb1495c636a07842e415ff27222",
          "transactionIndex": "0x0",
          "logIndex": "0x0",
          "removed": false
        }
      ],
      "logsBloom": "0x00000000000000000002000000000000000000000000000000000000000000000000000000000000000000000000000000000000000000000000000000040000040000000000000000000000000000000000000000040000000000000000000000000840000000000000000000000000000000000000000000000000000000000000000000000000000000000000000000000000020000000000000200000000000000000000000000000000400000000000000000000000000000000000000000000040000000000000000000000000000000000000000000000000000040000000000000000000000000000000000001000000000000000000000000000000",
      "type": "0x2",
      "transactionHash": "0x39e518d37ecc07f682acc26549c9d8326e593eb1495c636a07842e415ff27222",
      "transactionIndex": "0x0",
      "blockHash": "0x3729948065cb1377bc56cbc21c96eb2cdb1ad3357b558e04b0ca59cc9f95e483",
      "blockNumber": "0x2",
      "gasUsed": "0x11477",
      "effectiveGasPrice": "0x350923cb",
      "blobGasPrice": "0x1",
      "from": "0xf39fd6e51aad88f6f4ce6ab8827279cfffb92266",
      "to": "0x5fbdb2315678afecb367f032d93f642f64180aa3",
      "contractAddress": null
    },
    {
      "status": "0x1",
      "cumulativeGasUsed": "0xd19f",
      "logs": [
        {
          "address": "0x5fbdb2315678afecb367f032d93f642f64180aa3",
          "topics": [
            "0xf1ea2573ddf2ce6e931102024c2b67e7d23a5e33614f19c27f5a5aaf1d59c088",
            "0x0000000000000000000000000000000000000000000000000000000000000002",
            "0x0000000000000000000000003c44cdddb6a900fa2b585dd299e03d12fa4293bc"
          ],
          "data": "0x",
          "blockHash": "0x2da12a3195fa92f99f0ddcb0432f2674ebf1204397ecd42125f7cdc2e61c10df",
          "blockNumber": "0x3",
          "blockTimestamp": "0x68b48c43",
          "transactionHash": "0x0d63c04eca0b764a0d626147448c3ff1bd320adfffca773a9d5db4abcfc2028a",
          "transactionIndex": "0x0",
          "logIndex": "0x0",
          "removed": false
        }
      ],
      "logsBloom": "0x04000000000000000000000000000000000000000000000000000000000000000000000000000000000000000000000000000000000000000000000000100000040000000000000000000000000000000000000000000000000000000000000000000040000000000000000000000000000800000000000000000000000000000000000000000000000000000000000000000000020000000000000200000000000000000000200000000100400000000000000000000000000000000000000000000040000000000000000000000000000000000000000000000000000000000000000000000000000000000000000000000000008000000000000000000000",
      "type": "0x2",
      "transactionHash": "0x0d63c04eca0b764a0d626147448c3ff1bd320adfffca773a9d5db4abcfc2028a",
      "transactionIndex": "0x0",
      "blockHash": "0x2da12a3195fa92f99f0ddcb0432f2674ebf1204397ecd42125f7cdc2e61c10df",
      "blockNumber": "0x3",
      "gasUsed": "0xd19f",
      "effectiveGasPrice": "0x2e70014a",
      "blobGasPrice": "0x1",
      "from": "0xf39fd6e51aad88f6f4ce6ab8827279cfffb92266",
      "to": "0x5fbdb2315678afecb367f032d93f642f64180aa3",
      "contractAddress": null
    },
    {
      "status": "0x1",
      "cumulativeGasUsed": "0xd1ab",
      "logs": [
        {
          "address": "0x5fbdb2315678afecb367f032d93f642f64180aa3",
          "topics": [
            "0xf1ea2573ddf2ce6e931102024c2b67e7d23a5e33614f19c27f5a5aaf1d59c088",
            "0x0000000000000000000000000000000000000000000000000000000000000003",
            "0x00000000000000000000000090f79bf6eb2c4f870365e785982e1f101e93b906"
          ],
          "data": "0x",
          "blockHash": "0xc103696d5b4a6d0d52439ba282d20bc86ba4425b24359c00a803e3bfbda831cf",
          "blockNumber": "0x4",
          "blockTimestamp": "0x68b48c43",
          "transactionHash": "0xb5f43e0855b638b930dee5205361440fb0bc3ab68d70a46cb7d59b8a392aec6e",
          "transactionIndex": "0x0",
          "logIndex": "0x0",
          "removed": false
        }
      ],
      "logsBloom": "0x00000000000000000000000000000000000000000000000000000000000000000000000000000000000000000000000000000000020000000000000000000000040000000000000000000000000000000000000000000000000000000000000000000040000000000000000000000000000000000000000000000000000000000000000000000000000000000000000000000000020000000400000200000000000000000000000000000000400000000000000000800000000000000000400000000040000000000000000000000000400000000000000000000000000000000000000000000000000010000000000000000000000000000000000000000000",
      "type": "0x2",
      "transactionHash": "0xb5f43e0855b638b930dee5205361440fb0bc3ab68d70a46cb7d59b8a392aec6e",
      "transactionIndex": "0x0",
      "blockHash": "0xc103696d5b4a6d0d52439ba282d20bc86ba4425b24359c00a803e3bfbda831cf",
      "blockNumber": "0x4",
      "gasUsed": "0xd1ab",
      "effectiveGasPrice": "0x28a75215",
      "blobGasPrice": "0x1",
      "from": "0xf39fd6e51aad88f6f4ce6ab8827279cfffb92266",
      "to": "0x5fbdb2315678afecb367f032d93f642f64180aa3",
      "contractAddress": null
    },
    {
      "status": "0x1",
      "cumulativeGasUsed": "0x57a88",
      "logs": [
        {
          "address": "0x5fbdb2315678afecb367f032d93f642f64180aa3",
          "topics": [
            "0xb6be2187d059cc2a55fe29e0e503b566e1e0f8c8780096e185429350acffd3dd",
            "0x00000000000000000000000015d34aaf54267db7d7c367839aaf71a00a2c6a65"
          ],
          "data": "0x",
          "blockHash": "0xc103696d5b4a6d0d52439ba282d20bc86ba4425b24359c00a803e3bfbda831cf",
          "blockNumber": "0x4",
          "blockTimestamp": "0x68b48c43",
          "transactionHash": "0x38bf66eaa4d9147f20db921b6b2c7a032c34c4ab917cefd10e99e11217489d53",
          "transactionIndex": "0x1",
          "logIndex": "0x1",
          "removed": false
        },
        {
          "address": "0x5fbdb2315678afecb367f032d93f642f64180aa3",
          "topics": [
            "0xb6be2187d059cc2a55fe29e0e503b566e1e0f8c8780096e185429350acffd3dd",
            "0x0000000000000000000000009965507d1a55bcc2695c58ba16fb37d819b0a4dc"
          ],
          "data": "0x",
          "blockHash": "0xc103696d5b4a6d0d52439ba282d20bc86ba4425b24359c00a803e3bfbda831cf",
          "blockNumber": "0x4",
          "blockTimestamp": "0x68b48c43",
          "transactionHash": "0x38bf66eaa4d9147f20db921b6b2c7a032c34c4ab917cefd10e99e11217489d53",
          "transactionIndex": "0x1",
          "logIndex": "0x2",
          "removed": false
        },
        {
          "address": "0x5fbdb2315678afecb367f032d93f642f64180aa3",
          "topics": [
            "0xb6be2187d059cc2a55fe29e0e503b566e1e0f8c8780096e185429350acffd3dd",
            "0x000000000000000000000000976ea74026e726554db657fa54763abd0c3a0aa9"
          ],
          "data": "0x",
          "blockHash": "0xc103696d5b4a6d0d52439ba282d20bc86ba4425b24359c00a803e3bfbda831cf",
          "blockNumber": "0x4",
          "blockTimestamp": "0x68b48c43",
          "transactionHash": "0x38bf66eaa4d9147f20db921b6b2c7a032c34c4ab917cefd10e99e11217489d53",
          "transactionIndex": "0x1",
          "logIndex": "0x3",
          "removed": false
        },
        {
          "address": "0x5fbdb2315678afecb367f032d93f642f64180aa3",
          "topics": [
            "0xb6be2187d059cc2a55fe29e0e503b566e1e0f8c8780096e185429350acffd3dd",
            "0x00000000000000000000000014dc79964da2c08b23698b3d3cc7ca32193d9955"
          ],
          "data": "0x",
          "blockHash": "0xc103696d5b4a6d0d52439ba282d20bc86ba4425b24359c00a803e3bfbda831cf",
          "blockNumber": "0x4",
          "blockTimestamp": "0x68b48c43",
          "transactionHash": "0x38bf66eaa4d9147f20db921b6b2c7a032c34c4ab917cefd10e99e11217489d53",
          "transactionIndex": "0x1",
          "logIndex": "0x4",
          "removed": false
        },
        {
          "address": "0x5fbdb2315678afecb367f032d93f642f64180aa3",
          "topics": [
            "0xb6be2187d059cc2a55fe29e0e503b566e1e0f8c8780096e185429350acffd3dd",
            "0x00000000000000000000000023618e81e3f5cdf7f54c3d65f7fbc0abf5b21e8f"
          ],
          "data": "0x",
          "blockHash": "0xc103696d5b4a6d0d52439ba282d20bc86ba4425b24359c00a803e3bfbda831cf",
          "blockNumber": "0x4",
          "blockTimestamp": "0x68b48c43",
          "transactionHash": "0x38bf66eaa4d9147f20db921b6b2c7a032c34c4ab917cefd10e99e11217489d53",
          "transactionIndex": "0x1",
          "logIndex": "0x5",
          "removed": false
        }
      ],
      "logsBloom": "0x00800004040000000000000000000000000000040200000000000000000000000000000000000000000000000000000000000000000000000000000000000000000000000000000000000000000000000000000000008400080000000000000000000040000000000000000000000100000000000000000000000000000000000001000000000000000000020000000000000000000000000000000300000000000000000000000000000000000000002000000000000000000000000000000000000040800000000000000000000000040000000000000000000000000004000000000000000000000000000000000000000000000000000000008010000000",
      "type": "0x2",
      "transactionHash": "0x38bf66eaa4d9147f20db921b6b2c7a032c34c4ab917cefd10e99e11217489d53",
      "transactionIndex": "0x1",
      "blockHash": "0xc103696d5b4a6d0d52439ba282d20bc86ba4425b24359c00a803e3bfbda831cf",
      "blockNumber": "0x4",
      "gasUsed": "0x4a8dd",
      "effectiveGasPrice": "0x28a75215",
      "blobGasPrice": "0x1",
      "from": "0xf39fd6e51aad88f6f4ce6ab8827279cfffb92266",
      "to": "0x5fbdb2315678afecb367f032d93f642f64180aa3",
      "contractAddress": null
    }
  ],
  "libraries": [],
  "pending": [],
  "returns": {},
  "timestamp": 1756662851366,
  "chain": 31337,
  "commit": null
}